{
  "contractName": "DummyToken",
  "abi": [
    {
      "anonymous": false,
      "inputs": [
        {
          "indexed": true,
          "name": "_from",
          "type": "address"
        },
        {
          "indexed": true,
          "name": "_to",
          "type": "address"
        },
        {
          "indexed": false,
          "name": "_value",
          "type": "uint256"
        }
      ],
      "name": "Transfer",
      "type": "event"
    },
    {
      "anonymous": false,
      "inputs": [
        {
          "indexed": true,
          "name": "_owner",
          "type": "address"
        },
        {
          "indexed": true,
          "name": "_spender",
          "type": "address"
        },
        {
          "indexed": false,
          "name": "_value",
          "type": "uint256"
        }
      ],
      "name": "Approval",
      "type": "event"
    },
    {
      "constant": true,
      "inputs": [],
      "name": "totalSupply",
      "outputs": [
        {
          "name": "",
          "type": "uint256"
        }
      ],
      "payable": false,
      "stateMutability": "view",
      "type": "function"
    },
    {
      "constant": true,
      "inputs": [
        {
          "name": "_owner",
          "type": "address"
        }
      ],
      "name": "balanceOf",
      "outputs": [
        {
          "name": "balance",
          "type": "uint256"
        }
      ],
      "payable": false,
      "stateMutability": "view",
      "type": "function"
    },
    {
      "constant": false,
      "inputs": [
        {
          "name": "_to",
          "type": "address"
        },
        {
          "name": "_value",
          "type": "uint256"
        }
      ],
      "name": "transfer",
      "outputs": [
        {
          "name": "success",
          "type": "bool"
        }
      ],
      "payable": false,
      "stateMutability": "nonpayable",
      "type": "function"
    },
    {
      "constant": false,
      "inputs": [
        {
          "name": "_from",
          "type": "address"
        },
        {
          "name": "_to",
          "type": "address"
        },
        {
          "name": "_value",
          "type": "uint256"
        }
      ],
      "name": "transferFrom",
      "outputs": [
        {
          "name": "success",
          "type": "bool"
        }
      ],
      "payable": false,
      "stateMutability": "nonpayable",
      "type": "function"
    },
    {
      "constant": false,
      "inputs": [
        {
          "name": "_spender",
          "type": "address"
        },
        {
          "name": "_value",
          "type": "uint256"
        }
      ],
      "name": "approve",
      "outputs": [
        {
          "name": "success",
          "type": "bool"
        }
      ],
      "payable": false,
      "stateMutability": "nonpayable",
      "type": "function"
    },
    {
      "constant": true,
      "inputs": [
        {
          "name": "_owner",
          "type": "address"
        },
        {
          "name": "_spender",
          "type": "address"
        }
      ],
      "name": "allowance",
      "outputs": [
        {
          "name": "remaining",
          "type": "uint256"
        }
      ],
      "payable": false,
      "stateMutability": "view",
      "type": "function"
    },
    {
      "constant": false,
      "inputs": [],
      "name": "mine",
      "outputs": [],
      "payable": false,
      "stateMutability": "nonpayable",
      "type": "function"
    }
  ],
  "bytecode": "0x6060604052341561000f57600080fd5b6107958061001e6000396000f300606060405260043610610083576000357c0100000000000000000000000000000000000000000000000000000000900463ffffffff168063095ea7b31461008857806318160ddd146100e257806323b872dd1461010b57806370a082311461018457806399f4b251146101d1578063a9059cbb146101e6578063dd62ed3e14610240575b600080fd5b341561009357600080fd5b6100c8600480803573ffffffffffffffffffffffffffffffffffffffff169060200190919080359060200190919050506102ac565b604051808215151515815260200191505060405180910390f35b34156100ed57600080fd5b6100f5610394565b6040518082815260200191505060405180910390f35b341561011657600080fd5b61016a600480803573ffffffffffffffffffffffffffffffffffffffff1690602001909190803573ffffffffffffffffffffffffffffffffffffffff1690602001909190803590602001909190505061039e565b604051808215151515815260200191505060405180910390f35b341561018f57600080fd5b6101bb600480803573ffffffffffffffffffffffffffffffffffffffff1690602001909190505061053b565b6040518082815260200191505060405180910390f35b34156101dc57600080fd5b6101e4610583565b005b34156101f157600080fd5b610226600480803573ffffffffffffffffffffffffffffffffffffffff169060200190919080359060200190919050506105e3565b604051808215151515815260200191505060405180910390f35b341561024b57600080fd5b610296600480803573ffffffffffffffffffffffffffffffffffffffff1690602001909190803573ffffffffffffffffffffffffffffffffffffffff169060200190919050506106e2565b6040518082815260200191505060405180910390f35b600080821115806102fa5750816000803373ffffffffffffffffffffffffffffffffffffffff1673ffffffffffffffffffffffffffffffffffffffff16815260200190815260200160002054105b15610308576000905061038e565b81600160003373ffffffffffffffffffffffffffffffffffffffff1673ffffffffffffffffffffffffffffffffffffffff16815260200190815260200160002060008573ffffffffffffffffffffffffffffffffffffffff1673ffffffffffffffffffffffffffffffffffffffff16815260200190815260200160002081905550600190505b92915050565b6000600254905090565b600080821115806103b75750816103b585336106e2565b105b806103ff5750816000808673ffffffffffffffffffffffffffffffffffffffff1673ffffffffffffffffffffffffffffffffffffffff16815260200190815260200160002054105b1561040d5760009050610534565b816000808673ffffffffffffffffffffffffffffffffffffffff1673ffffffffffffffffffffffffffffffffffffffff1681526020019081526020016000206000828254039250508190555081600160008673ffffffffffffffffffffffffffffffffffffffff1673ffffffffffffffffffffffffffffffffffffffff16815260200190815260200160002060003373ffffffffffffffffffffffffffffffffffffffff1673ffffffffffffffffffffffffffffffffffffffff16815260200190815260200160002060008282540392505081905550816000808573ffffffffffffffffffffffffffffffffffffffff1673ffffffffffffffffffffffffffffffffffffffff16815260200190815260200160002060008282540192505081905550600190505b9392505050565b60008060008373ffffffffffffffffffffffffffffffffffffffff1673ffffffffffffffffffffffffffffffffffffffff168152602001908152602001600020549050919050565b60016000803373ffffffffffffffffffffffffffffffffffffffff1673ffffffffffffffffffffffffffffffffffffffff168152602001908152602001600020600082825401925050819055506001600260008282540192505081905550565b600080821115806106315750816000803373ffffffffffffffffffffffffffffffffffffffff1673ffffffffffffffffffffffffffffffffffffffff16815260200190815260200160002054105b1561063f57600090506106dc565b816000803373ffffffffffffffffffffffffffffffffffffffff1673ffffffffffffffffffffffffffffffffffffffff16815260200190815260200160002060008282540392505081905550816000808573ffffffffffffffffffffffffffffffffffffffff1673ffffffffffffffffffffffffffffffffffffffff16815260200190815260200160002060008282540192505081905550600190505b92915050565b6000600160008473ffffffffffffffffffffffffffffffffffffffff1673ffffffffffffffffffffffffffffffffffffffff16815260200190815260200160002060008373ffffffffffffffffffffffffffffffffffffffff1673ffffffffffffffffffffffffffffffffffffffff168152602001908152602001600020549050929150505600a165627a7a723058209153bfd2f7974fb07ae2791c0577d44bbdf7198e9baa6badaab598b08434876b0029",
  "source": "pragma solidity ^0.4.18;\n\ncontract DummyToken {\n\tmapping(address => uint) balances;\n\tmapping(address => mapping(address => uint)) approved;\n\tuint supply;\n\n\t// Get the total token supply in circulation\n\tfunction totalSupply() constant returns (uint) {\n\t\treturn supply;\n\t}\n\n\t// Get the account balance of another account with address _owner\n\tfunction balanceOf(address _owner) constant returns (uint balance) {\n\t\treturn balances[_owner];\n\t}\n\n\t// Send _value amount of tokens to address _to\n\tfunction transfer(address _to, uint _value) returns (bool success) {\n\t\t// Unsuccessful transaction\n\t\tif (_value <= 0 || balances[msg.sender] < _value) return false; \n\n\t\tbalances[msg.sender] -= _value;\n\t\tbalances[_to] += _value;\n\n\t\treturn true;\n\t}\n\n\t// Send _value amount of tokens from address _from to address _to\n\tfunction transferFrom(address _from, address _to, uint _value) returns (bool success) {\n\t\t// Unsuccessful transaction\n\t\tif (_value <= 0 || allowance(_from, msg.sender) < _value || balances[_from] < _value) return false;\n\n\t\tbalances[_from] -= _value;\n\t\tapproved[_from][msg.sender] -= _value;\n\t\tbalances[_to] += _value;\n\n\t\treturn true;\n\t}\n\n\t// Allow _spender to withdraw from your account, multiple times, up to the _value amount.\n\t// If this function is called again it overwrites the current allowance with _value.\n\tfunction approve(address _spender, uint _value) returns (bool success) {\n\t\tif (_value <= 0 || balances[msg.sender] < _value) return false;\n\n\t\t// approved[owner][spender] - allowed _value\n\t\tapproved[msg.sender][_spender] = _value;\n\n\t\treturn true;\n\t}\n\n\t// Returns the amount which _spender is still allowed to withdraw from _owner\n\tfunction allowance(address _owner, address _spender) constant returns (uint remaining) {\n\t\treturn approved[_owner][_spender];\n\t}\n\n\t// Triggered when tokens are transferred.\n\tevent Transfer(address indexed _from, address indexed _to, uint _value);\n\n\t// Triggered whenever approve(address _spender, uint256 _value) is called.\n\tevent Approval(address indexed _owner, address indexed _spender, uint _value);\n\n\t// Custom (not ERC20 functions)\n\tfunction mine() {\n\t\tbalances[msg.sender] += 1;\n\t\tsupply += 1;\n\t}\n}",
  "sourcePath": "/Users/Des1derata/Desktop/dummy-token_truffle/contracts/DummyToken.sol",
  "compiler": {
    "name": "solc",
    "version": "0.4.19+commit.c4cbbb05.Emscripten.clang"
  },
  "schemaVersion": "1.0.1",
  "updatedAt": "2018-02-24T23:25:06.037Z"
}